{
  "contractName": "UserListManagement",
  "abi": [
    {
      "anonymous": false,
      "inputs": [
        {
          "indexed": false,
          "internalType": "uint256",
          "name": "id",
          "type": "uint256"
        },
        {
          "indexed": false,
          "internalType": "string",
          "name": "ipnsName",
          "type": "string"
        },
        {
          "indexed": false,
          "internalType": "address",
          "name": "creator",
          "type": "address"
        }
      ],
      "name": "ListCreated",
      "type": "event"
    },
    {
      "anonymous": false,
      "inputs": [
        {
          "indexed": false,
          "internalType": "uint256",
          "name": "id",
          "type": "uint256"
        }
      ],
      "name": "ListDeleted",
      "type": "event"
    },
    {
      "anonymous": false,
      "inputs": [
        {
          "indexed": false,
          "internalType": "uint256",
          "name": "id",
          "type": "uint256"
        },
        {
          "indexed": false,
          "internalType": "address",
          "name": "peer",
          "type": "address"
        }
      ],
      "name": "ListShared",
      "type": "event"
    },
    {
      "anonymous": false,
      "inputs": [
        {
          "indexed": false,
          "internalType": "uint256",
          "name": "id",
          "type": "uint256"
        },
        {
          "indexed": false,
          "internalType": "address",
          "name": "peer",
          "type": "address"
        }
      ],
      "name": "ListUnshared",
      "type": "event"
    },
    {
      "anonymous": false,
      "inputs": [
        {
          "indexed": false,
          "internalType": "string",
          "name": "RSAPubKey",
          "type": "string"
        }
      ],
      "name": "RSAPubKeyStored",
      "type": "event"
    },
    {
      "inputs": [
        {
          "internalType": "uint256",
          "name": "",
          "type": "uint256"
        }
      ],
      "name": "iPNSname",
      "outputs": [
        {
          "internalType": "string",
          "name": "",
          "type": "string"
        }
      ],
      "stateMutability": "view",
      "type": "function",
      "constant": true
    },
    {
      "inputs": [
        {
          "internalType": "uint256",
          "name": "",
          "type": "uint256"
        },
        {
          "internalType": "uint256",
          "name": "",
          "type": "uint256"
        }
      ],
      "name": "listUsers",
      "outputs": [
        {
          "internalType": "address",
          "name": "",
          "type": "address"
        }
      ],
      "stateMutability": "view",
      "type": "function",
      "constant": true
    },
    {
      "inputs": [
        {
          "internalType": "address",
          "name": "",
          "type": "address"
        },
        {
          "internalType": "uint256",
          "name": "",
          "type": "uint256"
        }
      ],
      "name": "userLists",
      "outputs": [
        {
          "internalType": "uint256",
          "name": "id",
          "type": "uint256"
        },
        {
          "internalType": "string",
          "name": "keyAES",
          "type": "string"
        }
      ],
      "stateMutability": "view",
      "type": "function",
      "constant": true
    },
    {
      "inputs": [
        {
          "internalType": "address",
          "name": "",
          "type": "address"
        }
      ],
      "name": "userRSAPubKeys",
      "outputs": [
        {
          "internalType": "string",
          "name": "",
          "type": "string"
        }
      ],
      "stateMutability": "view",
      "type": "function",
      "constant": true
    },
    {
      "inputs": [
        {
          "internalType": "uint256",
          "name": "_id",
          "type": "uint256"
        }
      ],
      "name": "getListUsers",
      "outputs": [
        {
          "internalType": "address[]",
          "name": "",
          "type": "address[]"
        }
      ],
      "stateMutability": "view",
      "type": "function",
      "constant": true
    },
    {
      "inputs": [
        {
          "internalType": "address",
          "name": "peer",
          "type": "address"
        }
      ],
      "name": "getUserLists",
      "outputs": [
        {
          "components": [
            {
              "internalType": "uint256",
              "name": "id",
              "type": "uint256"
            },
            {
              "internalType": "string",
              "name": "keyAES",
              "type": "string"
            }
          ],
          "internalType": "struct UserListManagement.ListKey[]",
          "name": "",
          "type": "tuple[]"
        }
      ],
      "stateMutability": "view",
      "type": "function",
      "constant": true
    },
    {
      "inputs": [
        {
          "internalType": "uint256",
          "name": "_id",
          "type": "uint256"
        },
        {
          "internalType": "string",
          "name": "_ipnsName",
          "type": "string"
        },
        {
          "internalType": "string",
          "name": "_keyAES",
          "type": "string"
        }
      ],
      "name": "createList",
      "outputs": [],
      "stateMutability": "nonpayable",
      "type": "function"
    },
    {
      "inputs": [
        {
          "internalType": "address",
          "name": "peer",
          "type": "address"
        },
        {
          "internalType": "uint256",
          "name": "_id",
          "type": "uint256"
        },
        {
          "internalType": "string",
          "name": "_keyAES",
          "type": "string"
        }
      ],
      "name": "shareList",
      "outputs": [],
      "stateMutability": "nonpayable",
      "type": "function"
    },
    {
      "inputs": [
        {
          "internalType": "address",
          "name": "peer",
          "type": "address"
        },
        {
          "internalType": "uint256",
          "name": "_id",
          "type": "uint256"
        }
      ],
      "name": "unshareList",
      "outputs": [],
      "stateMutability": "nonpayable",
      "type": "function"
    },
    {
      "inputs": [
        {
          "internalType": "uint256",
          "name": "_id",
          "type": "uint256"
        }
      ],
      "name": "deleteList",
      "outputs": [],
      "stateMutability": "nonpayable",
      "type": "function"
    },
    {
      "inputs": [
        {
          "internalType": "string",
          "name": "_rSAPubKey",
          "type": "string"
        }
      ],
      "name": "storeRSAPubKey",
      "outputs": [],
      "stateMutability": "nonpayable",
      "type": "function"
    }
  ],
  "bytecode": "0x608060405234801561001057600080fd5b506124cd806100206000396000f3fe608060405234801561001057600080fd5b50600436106100a95760003560e01c806353fc90611161007157806353fc9061146101765780635d032cf114610192578063604c9e44146101c2578063797adbde146101de57806381a9db80146101fa578063f25bcf661461022b576100a9565b8063178028f2146100ae5780632751ee18146100ca5780632ae8b9a2146100fa5780632afe0ad21461012a5780632d462a981461015a575b600080fd5b6100c860048036038101906100c3919061176d565b61025b565b005b6100e460048036038101906100df91906117dc565b610462565b6040516100f19190611888565b60405180910390f35b610114600480360381019061010f91906118aa565b610502565b60405161012191906118f9565b60405180910390f35b610144600480360381019061013f91906117dc565b610550565b6040516101519190611a6c565b60405180910390f35b610174600480360381019061016f9190611a8e565b610689565b005b610190600480360381019061018b9190611ace565b610bc8565b005b6101ac60048036038101906101a79190611b59565b610d9d565b6040516101b99190611888565b60405180910390f35b6101dc60048036038101906101d79190611b86565b610e3d565b005b6101f860048036038101906101f39190611b59565b610f08565b005b610214600480360381019061020f9190611a8e565b6112c6565b604051610222929190611bde565b60405180910390f35b61024560048036038101906102409190611b59565b61138f565b6040516102529190611ccc565b60405180910390f35b6102653383611430565b6102a4576040517f08c379a000000000000000000000000000000000000000000000000000000000815260040161029b90611d3a565b60405180910390fd5b3373ffffffffffffffffffffffffffffffffffffffff168373ffffffffffffffffffffffffffffffffffffffff1603610312576040517f08c379a000000000000000000000000000000000000000000000000000000000815260040161030990611dcc565b60405180910390fd5b6000808473ffffffffffffffffffffffffffffffffffffffff1673ffffffffffffffffffffffffffffffffffffffff16815260200190815260200160002060405180604001604052808481526020018381525090806001815401808255809150506001900390600052602060002090600202016000909190919091506000820151816000015560208201518160010190816103ad9190611ff8565b50505060016000838152602001908152602001600020839080600181540180825580915050600190039060005260206000200160009091909190916101000a81548173ffffffffffffffffffffffffffffffffffffffff021916908373ffffffffffffffffffffffffffffffffffffffff1602179055507f7db5aefa03bb85456ac87d8999c8cd3490cd17210e6465f100c3978b7a7363a882846040516104559291906120ca565b60405180910390a1505050565b6003602052806000526040600020600091509050805461048190611e1b565b80601f01602080910402602001604051908101604052809291908181526020018280546104ad90611e1b565b80156104fa5780601f106104cf576101008083540402835291602001916104fa565b820191906000526020600020905b8154815290600101906020018083116104dd57829003601f168201915b505050505081565b6001602052816000526040600020818154811061051e57600080fd5b906000526020600020016000915091509054906101000a900473ffffffffffffffffffffffffffffffffffffffff1681565b60606000808373ffffffffffffffffffffffffffffffffffffffff1673ffffffffffffffffffffffffffffffffffffffff168152602001908152602001600020805480602002602001604051908101604052809291908181526020016000905b8282101561067e5783829060005260206000209060020201604051806040016040529081600082015481526020016001820180546105ed90611e1b565b80601f016020809104026020016040519081016040528092919081815260200182805461061990611e1b565b80156106665780601f1061063b57610100808354040283529160200191610666565b820191906000526020600020905b81548152906001019060200180831161064957829003601f168201915b505050505081525050815260200190600101906105b0565b505050509050919050565b6106933382611430565b6106d2576040517f08c379a00000000000000000000000000000000000000000000000000000000081526004016106c990611d3a565b60405180910390fd5b6001806000838152602001908152602001600020805490501161072a576040517f08c379a00000000000000000000000000000000000000000000000000000000081526004016107219061213f565b60405180910390fd5b60005b6001600083815260200190815260200160002080549050811015610917578273ffffffffffffffffffffffffffffffffffffffff166001600084815260200190815260200160002082815481106107875761078661215f565b5b9060005260206000200160009054906101000a900473ffffffffffffffffffffffffffffffffffffffff1673ffffffffffffffffffffffffffffffffffffffff1603610904576001600083815260200190815260200160002060018060008581526020019081526020016000208054905061080291906121bd565b815481106108135761081261215f565b5b9060005260206000200160009054906101000a900473ffffffffffffffffffffffffffffffffffffffff166001600084815260200190815260200160002082815481106108635761086261215f565b5b9060005260206000200160006101000a81548173ffffffffffffffffffffffffffffffffffffffff021916908373ffffffffffffffffffffffffffffffffffffffff160217905550600160008381526020019081526020016000208054806108ce576108cd6121f1565b5b6001900381819060005260206000200160006101000a81549073ffffffffffffffffffffffffffffffffffffffff021916905590555b808061090f90612220565b91505061072d565b5060005b6000808473ffffffffffffffffffffffffffffffffffffffff1673ffffffffffffffffffffffffffffffffffffffff16815260200190815260200160002080549050811015610b8a57816000808573ffffffffffffffffffffffffffffffffffffffff1673ffffffffffffffffffffffffffffffffffffffff16815260200190815260200160002082815481106109b5576109b461215f565b5b90600052602060002090600202016000015403610b77576000808473ffffffffffffffffffffffffffffffffffffffff1673ffffffffffffffffffffffffffffffffffffffff16815260200190815260200160002060016000808673ffffffffffffffffffffffffffffffffffffffff1673ffffffffffffffffffffffffffffffffffffffff16815260200190815260200160002080549050610a5891906121bd565b81548110610a6957610a6861215f565b5b90600052602060002090600202016000808573ffffffffffffffffffffffffffffffffffffffff1673ffffffffffffffffffffffffffffffffffffffff1681526020019081526020016000208281548110610ac757610ac661215f565b5b90600052602060002090600202016000820154816000015560018201816001019081610af3919061227e565b509050506000808473ffffffffffffffffffffffffffffffffffffffff1673ffffffffffffffffffffffffffffffffffffffff168152602001908152602001600020805480610b4557610b446121f1565b5b6001900381819060005260206000209060020201600080820160009055600182016000610b729190611501565b505090555b8080610b8290612220565b91505061091b565b507f211ebcfe3d2240cc58bc0c37f1dece6af28a499f524da9e5eb294e4d839bf64b8183604051610bbc9291906120ca565b60405180910390a15050565b6000600260008581526020019081526020016000208054610be890611e1b565b905014610c2a576040517f08c379a0000000000000000000000000000000000000000000000000000000008152600401610c21906123b2565b60405180910390fd5b81600260008581526020019081526020016000209081610c4a9190611ff8565b506000803373ffffffffffffffffffffffffffffffffffffffff1673ffffffffffffffffffffffffffffffffffffffff1681526020019081526020016000206040518060400160405280858152602001838152509080600181540180825580915050600190039060005260206000209060020201600090919091909150600082015181600001556020820151816001019081610ce69190611ff8565b50505060016000848152602001908152602001600020339080600181540180825580915050600190039060005260206000200160009091909190916101000a81548173ffffffffffffffffffffffffffffffffffffffff021916908373ffffffffffffffffffffffffffffffffffffffff1602179055507fe02edf3d865140616473f19bc917dac0a43099fc958ecc9264942a59db8835e6838333604051610d90939291906123d2565b60405180910390a1505050565b60026020528060005260406000206000915090508054610dbc90611e1b565b80601f0160208091040260200160405190810160405280929190818152602001828054610de890611e1b565b8015610e355780601f10610e0a57610100808354040283529160200191610e35565b820191906000526020600020905b815481529060010190602001808311610e1857829003601f168201915b505050505081565b6000815111610e81576040517f08c379a0000000000000000000000000000000000000000000000000000000008152600401610e789061245c565b60405180910390fd5b80600360003373ffffffffffffffffffffffffffffffffffffffff1673ffffffffffffffffffffffffffffffffffffffff1681526020019081526020016000209081610ecd9190611ff8565b507f6a980bad4e0727f9f480479eb1013fcd608ba0b7c7df9a26c459f0d0bcc5dd2781604051610efd9190611888565b60405180910390a150565b610f123382611430565b610f51576040517f08c379a0000000000000000000000000000000000000000000000000000000008152600401610f4890611d3a565b60405180910390fd5b60005b600160008381526020019081526020016000208054905081101561124d576000600160008481526020019081526020016000208281548110610f9957610f9861215f565b5b9060005260206000200160009054906101000a900473ffffffffffffffffffffffffffffffffffffffff16905060005b6000808373ffffffffffffffffffffffffffffffffffffffff1673ffffffffffffffffffffffffffffffffffffffff1681526020019081526020016000208054905081101561123857836000808473ffffffffffffffffffffffffffffffffffffffff1673ffffffffffffffffffffffffffffffffffffffff16815260200190815260200160002082815481106110635761106261215f565b5b90600052602060002090600202016000015403611225576000808373ffffffffffffffffffffffffffffffffffffffff1673ffffffffffffffffffffffffffffffffffffffff16815260200190815260200160002060016000808573ffffffffffffffffffffffffffffffffffffffff1673ffffffffffffffffffffffffffffffffffffffff1681526020019081526020016000208054905061110691906121bd565b815481106111175761111661215f565b5b90600052602060002090600202016000808473ffffffffffffffffffffffffffffffffffffffff1673ffffffffffffffffffffffffffffffffffffffff16815260200190815260200160002082815481106111755761117461215f565b5b906000526020600020906002020160008201548160000155600182018160010190816111a1919061227e565b509050506000808373ffffffffffffffffffffffffffffffffffffffff1673ffffffffffffffffffffffffffffffffffffffff1681526020019081526020016000208054806111f3576111f26121f1565b5b60019003818190600052602060002090600202016000808201600090556001820160006112209190611501565b505090555b808061123090612220565b915050610fc9565b5050808061124590612220565b915050610f54565b5060016000828152602001908152602001600020600061126d9190611541565b60026000828152602001908152602001600020600061128c9190611501565b7fd33063b0d78632c1d909d410191f7a39f978088d25a883233e721e12cd66750c816040516112bb919061247c565b60405180910390a150565b600060205281600052604060002081815481106112e257600080fd5b90600052602060002090600202016000915091505080600001549080600101805461130c90611e1b565b80601f016020809104026020016040519081016040528092919081815260200182805461133890611e1b565b80156113855780601f1061135a57610100808354040283529160200191611385565b820191906000526020600020905b81548152906001019060200180831161136857829003601f168201915b5050505050905082565b60606001600083815260200190815260200160002080548060200260200160405190810160405280929190818152602001828054801561142457602002820191906000526020600020905b8160009054906101000a900473ffffffffffffffffffffffffffffffffffffffff1673ffffffffffffffffffffffffffffffffffffffff16815260200190600101908083116113da575b50505050509050919050565b600080600090505b60016000848152602001908152602001600020805490508110156114f5578373ffffffffffffffffffffffffffffffffffffffff166001600085815260200190815260200160002082815481106114925761149161215f565b5b9060005260206000200160009054906101000a900473ffffffffffffffffffffffffffffffffffffffff1673ffffffffffffffffffffffffffffffffffffffff16036114e25760019150506114fb565b80806114ed90612220565b915050611438565b50600090505b92915050565b50805461150d90611e1b565b6000825580601f1061151f575061153e565b601f01602090049060005260206000209081019061153d9190611562565b5b50565b508054600082559060005260206000209081019061155f9190611562565b50565b5b8082111561157b576000816000905550600101611563565b5090565b6000604051905090565b600080fd5b600080fd5b600073ffffffffffffffffffffffffffffffffffffffff82169050919050565b60006115be82611593565b9050919050565b6115ce816115b3565b81146115d957600080fd5b50565b6000813590506115eb816115c5565b92915050565b6000819050919050565b611604816115f1565b811461160f57600080fd5b50565b600081359050611621816115fb565b92915050565b600080fd5b600080fd5b6000601f19601f8301169050919050565b7f4e487b7100000000000000000000000000000000000000000000000000000000600052604160045260246000fd5b61167a82611631565b810181811067ffffffffffffffff8211171561169957611698611642565b5b80604052505050565b60006116ac61157f565b90506116b88282611671565b919050565b600067ffffffffffffffff8211156116d8576116d7611642565b5b6116e182611631565b9050602081019050919050565b82818337600083830152505050565b600061171061170b846116bd565b6116a2565b90508281526020810184848401111561172c5761172b61162c565b5b6117378482856116ee565b509392505050565b600082601f83011261175457611753611627565b5b81356117648482602086016116fd565b91505092915050565b60008060006060848603121561178657611785611589565b5b6000611794868287016115dc565b93505060206117a586828701611612565b925050604084013567ffffffffffffffff8111156117c6576117c561158e565b5b6117d28682870161173f565b9150509250925092565b6000602082840312156117f2576117f1611589565b5b6000611800848285016115dc565b91505092915050565b600081519050919050565b600082825260208201905092915050565b60005b83811015611843578082015181840152602081019050611828565b60008484015250505050565b600061185a82611809565b6118648185611814565b9350611874818560208601611825565b61187d81611631565b840191505092915050565b600060208201905081810360008301526118a2818461184f565b905092915050565b600080604083850312156118c1576118c0611589565b5b60006118cf85828601611612565b92505060206118e085828601611612565b9150509250929050565b6118f3816115b3565b82525050565b600060208201905061190e60008301846118ea565b92915050565b600081519050919050565b600082825260208201905092915050565b6000819050602082019050919050565b611949816115f1565b82525050565b600082825260208201905092915050565b600061196b82611809565b611975818561194f565b9350611985818560208601611825565b61198e81611631565b840191505092915050565b60006040830160008301516119b16000860182611940565b50602083015184820360208601526119c98282611960565b9150508091505092915050565b60006119e28383611999565b905092915050565b6000602082019050919050565b6000611a0282611914565b611a0c818561191f565b935083602082028501611a1e85611930565b8060005b85811015611a5a5784840389528151611a3b85826119d6565b9450611a46836119ea565b925060208a01995050600181019050611a22565b50829750879550505050505092915050565b60006020820190508181036000830152611a8681846119f7565b905092915050565b60008060408385031215611aa557611aa4611589565b5b6000611ab3858286016115dc565b9250506020611ac485828601611612565b9150509250929050565b600080600060608486031215611ae757611ae6611589565b5b6000611af586828701611612565b935050602084013567ffffffffffffffff811115611b1657611b1561158e565b5b611b228682870161173f565b925050604084013567ffffffffffffffff811115611b4357611b4261158e565b5b611b4f8682870161173f565b9150509250925092565b600060208284031215611b6f57611b6e611589565b5b6000611b7d84828501611612565b91505092915050565b600060208284031215611b9c57611b9b611589565b5b600082013567ffffffffffffffff811115611bba57611bb961158e565b5b611bc68482850161173f565b91505092915050565b611bd8816115f1565b82525050565b6000604082019050611bf36000830185611bcf565b8181036020830152611c05818461184f565b90509392505050565b600081519050919050565b600082825260208201905092915050565b6000819050602082019050919050565b611c43816115b3565b82525050565b6000611c558383611c3a565b60208301905092915050565b6000602082019050919050565b6000611c7982611c0e565b611c838185611c19565b9350611c8e83611c2a565b8060005b83811015611cbf578151611ca68882611c49565b9750611cb183611c61565b925050600181019050611c92565b5085935050505092915050565b60006020820190508181036000830152611ce68184611c6e565b905092915050565b7f4e6f2072696768747320746f20746865206c6973740000000000000000000000600082015250565b6000611d24601583611814565b9150611d2f82611cee565b602082019050919050565b60006020820190508181036000830152611d5381611d17565b9050919050565b7f53686172696e672077697468206f6e6573656c66206e6f7420706f737369626c60008201527f6500000000000000000000000000000000000000000000000000000000000000602082015250565b6000611db6602183611814565b9150611dc182611d5a565b604082019050919050565b60006020820190508181036000830152611de581611da9565b9050919050565b7f4e487b7100000000000000000000000000000000000000000000000000000000600052602260045260246000fd5b60006002820490506001821680611e3357607f821691505b602082108103611e4657611e45611dec565b5b50919050565b60008190508160005260206000209050919050565b60006020601f8301049050919050565b600082821b905092915050565b600060088302611eae7fffffffffffffffffffffffffffffffffffffffffffffffffffffffffffffffff82611e71565b611eb88683611e71565b95508019841693508086168417925050509392505050565b6000819050919050565b6000611ef5611ef0611eeb846115f1565b611ed0565b6115f1565b9050919050565b6000819050919050565b611f0f83611eda565b611f23611f1b82611efc565b848454611e7e565b825550505050565b600090565b611f38611f2b565b611f43818484611f06565b505050565b5b81811015611f6757611f5c600082611f30565b600181019050611f49565b5050565b601f821115611fac57611f7d81611e4c565b611f8684611e61565b81016020851015611f95578190505b611fa9611fa185611e61565b830182611f48565b50505b505050565b600082821c905092915050565b6000611fcf60001984600802611fb1565b1980831691505092915050565b6000611fe88383611fbe565b9150826002028217905092915050565b61200182611809565b67ffffffffffffffff81111561201a57612019611642565b5b6120248254611e1b565b61202f828285611f6b565b600060209050601f8311600181146120625760008415612050578287015190505b61205a8582611fdc565b8655506120c2565b601f19841661207086611e4c565b60005b8281101561209857848901518255600182019150602085019450602081019050612073565b868310156120b557848901516120b1601f891682611fbe565b8355505b6001600288020188555050505b505050505050565b60006040820190506120df6000830185611bcf565b6120ec60208301846118ea565b9392505050565b7f43616e6e6f7420756e73686172652077697468206c6173742075736572000000600082015250565b6000612129601d83611814565b9150612134826120f3565b602082019050919050565b600060208201905081810360008301526121588161211c565b9050919050565b7f4e487b7100000000000000000000000000000000000000000000000000000000600052603260045260246000fd5b7f4e487b7100000000000000000000000000000000000000000000000000000000600052601160045260246000fd5b60006121c8826115f1565b91506121d3836115f1565b92508282039050818111156121eb576121ea61218e565b5b92915050565b7f4e487b7100000000000000000000000000000000000000000000000000000000600052603160045260246000fd5b600061222b826115f1565b91507fffffffffffffffffffffffffffffffffffffffffffffffffffffffffffffffff820361225d5761225c61218e565b5b600182019050919050565b60008154905061227781611e1b565b9050919050565b81810361228c575050612364565b61229582612268565b67ffffffffffffffff8111156122ae576122ad611642565b5b6122b88254611e1b565b6122c3828285611f6b565b6000601f8311600181146122f257600084156122e0578287015490505b6122ea8582611fdc565b86555061235d565b601f19841661230087611e4c565b965061230b86611e4c565b60005b828110156123335784890154825560018201915060018501945060208101905061230e565b86831015612350578489015461234c601f891682611fbe565b8355505b6001600288020188555050505b5050505050505b565b7f4c69737420494420616c7265616479206578697374732e000000000000000000600082015250565b600061239c601783611814565b91506123a782612366565b602082019050919050565b600060208201905081810360008301526123cb8161238f565b9050919050565b60006060820190506123e76000830186611bcf565b81810360208301526123f9818561184f565b905061240860408301846118ea565b949350505050565b7f5075626c6963206b65792063616e6e6f7420626520656d707479000000000000600082015250565b6000612446601a83611814565b915061245182612410565b602082019050919050565b6000602082019050818103600083015261247581612439565b9050919050565b60006020820190506124916000830184611bcf565b9291505056fea26469706673582212200aa1c31847b79e8e2d6213ae5da2c79f6ab27e15b5a6531cbd7204707da2be2964736f6c63430008110033",
  "immutableReferences": {},
  "source": "// SPDX-License-Identifier: MIT\npragma solidity >=0.4.22 <0.9.0;\n\n\n\ncontract UserListManagement {\n\n  struct ListKey {\n    uint id;\n    string keyAES;\n  }\n\n\n// how to secure data in mappings? \n  // user address to list IDs\n  mapping(address => ListKey[]) public userLists;\n  // list ID to list data\n  mapping(uint => address[]) public listUsers;\n\n  mapping(uint => string) public iPNSname;\n\n  mapping(address => string) public userRSAPubKeys;\n\n  event ListCreated(uint id, string ipnsName, address creator);\n  event ListDeleted(uint id);\n  event RSAPubKeyStored(string RSAPubKey);\n  event ListShared(uint id, address peer);\n  event ListUnshared(uint id, address peer);\n\n\n  // Getter fr das komplette Array \n\n  function getListUsers(uint _id) public view returns (address[] memory) {\n    return listUsers[_id];\n  }\n\n  function getUserLists(address peer) public view returns (ListKey[] memory) {\n    return userLists[peer];\n  }\n\n\n  function createList(uint _id, string memory _ipnsName, string memory _keyAES) public {\n   require(bytes(iPNSname[_id]).length == 0, \"List ID already exists.\");\n\n    iPNSname[_id] = (_ipnsName);\n    userLists[msg.sender].push(ListKey(_id, _keyAES));\n    listUsers[_id].push(msg.sender);\n    \n    emit ListCreated(_id, _ipnsName, msg.sender);\n  }\n\n\nfunction userCheck(address myAddress, uint _id) private view returns (bool) {\n  for (uint i = 0; i < listUsers[_id].length; i++) {\n    if (listUsers[_id][i] == myAddress) {\n      return true;\n    }\n  } \n  return false;\n}\n\n\n  function shareList(address peer, uint _id, string memory _keyAES) public {\n    require(userCheck(msg.sender, _id), \"No rights to the list\");\n    require(peer != msg.sender, \"Sharing with oneself not possible\");\n    \n    userLists[peer].push(ListKey(_id, _keyAES));\n    listUsers[_id].push(peer);\n\n    emit ListShared(_id, peer);\n  }\n\n  function unshareList(address peer, uint _id) public {\n    require(userCheck(msg.sender, _id), \"No rights to the list\");\n    require(listUsers[_id].length > 1, \"Cannot unshare with last user\");\n\n    for (uint i = 0; i < listUsers[_id].length; i++) {\n      if (listUsers[_id][i] == peer) {\n        listUsers[_id][i] = listUsers[_id][listUsers[_id].length -1];\n        listUsers[_id].pop();\n      }\n    }\n\n    for (uint i = 0; i < userLists[peer].length; i++) {\n      if (userLists[peer][i].id == _id) {\n        userLists[peer][i] = userLists[peer][userLists[peer].length -1];\n        userLists[peer].pop();\n      }\n    }\n\n    emit ListUnshared(_id, peer);\n  }\n\n\n\n  function deleteList(uint _id) public {\n    require(userCheck(msg.sender, _id), \"No rights to the list\");\n    \n    for (uint i = 0; i < listUsers[_id].length; i++) {\n      address tempUser = listUsers[_id][i];\n      for (uint j = 0; j < userLists[tempUser].length; j++) {\n        if (userLists[tempUser][j].id == _id) {\n          userLists[tempUser][j] = userLists[tempUser][userLists[tempUser].length -1];\n          userLists[tempUser].pop();\n        }\n      }\n    }\n\n    delete listUsers[_id];\n    delete iPNSname[_id];\n\n    emit ListDeleted(_id);\n  }\n\n\n\n  function storeRSAPubKey(string memory _rSAPubKey) public {\n        require(bytes(_rSAPubKey).length > 0, \"Public key cannot be empty\");\n        userRSAPubKeys[msg.sender] = _rSAPubKey;  // Store key\n        emit RSAPubKeyStored(_rSAPubKey);\n  }\n  \n}\n",
  "sourcePath": "C:\\Users\\Dave\\ba-project\\to-do-list\\contracts\\UserListManagement.sol",
  "compiler": {
    "name": "solc",
    "version": "0.8.17+commit.8df45f5f.Emscripten.clang"
  },
  "schemaVersion": "3.4.16",
  "updatedAt": "2025-03-11T10:02:08.793Z",
  "networkType": "ethereum",
  "devdoc": {
    "kind": "dev",
    "methods": {},
    "version": 1
  },
  "userdoc": {
    "kind": "user",
    "methods": {},
    "version": 1
  }
}