{
  "contractName": "UserListManagement",
  "abi": [
    {
      "anonymous": false,
      "inputs": [
        {
          "indexed": false,
          "internalType": "uint256",
          "name": "id",
          "type": "uint256"
        },
        {
          "indexed": false,
          "internalType": "string",
          "name": "ipnsName",
          "type": "string"
        },
        {
          "indexed": false,
          "internalType": "address",
          "name": "creator",
          "type": "address"
        }
      ],
      "name": "ListCreated",
      "type": "event"
    },
    {
      "anonymous": false,
      "inputs": [
        {
          "indexed": false,
          "internalType": "uint256",
          "name": "id",
          "type": "uint256"
        }
      ],
      "name": "ListDeleted",
      "type": "event"
    },
    {
      "inputs": [
        {
          "internalType": "uint256",
          "name": "",
          "type": "uint256"
        }
      ],
      "name": "lists",
      "outputs": [
        {
          "internalType": "uint256",
          "name": "id",
          "type": "uint256"
        },
        {
          "internalType": "string",
          "name": "ipnsName",
          "type": "string"
        },
        {
          "internalType": "address",
          "name": "creator",
          "type": "address"
        }
      ],
      "stateMutability": "view",
      "type": "function",
      "constant": true
    },
    {
      "inputs": [
        {
          "internalType": "address",
          "name": "",
          "type": "address"
        },
        {
          "internalType": "uint256",
          "name": "",
          "type": "uint256"
        }
      ],
      "name": "userLists",
      "outputs": [
        {
          "internalType": "uint256",
          "name": "",
          "type": "uint256"
        }
      ],
      "stateMutability": "view",
      "type": "function",
      "constant": true
    },
    {
      "inputs": [
        {
          "internalType": "uint256",
          "name": "_id",
          "type": "uint256"
        },
        {
          "internalType": "string",
          "name": "_ipnsName",
          "type": "string"
        }
      ],
      "name": "createList",
      "outputs": [],
      "stateMutability": "nonpayable",
      "type": "function"
    },
    {
      "inputs": [],
      "name": "fetchUserLists",
      "outputs": [
        {
          "internalType": "uint256[]",
          "name": "",
          "type": "uint256[]"
        }
      ],
      "stateMutability": "view",
      "type": "function",
      "constant": true
    },
    {
      "inputs": [
        {
          "internalType": "uint256",
          "name": "_id",
          "type": "uint256"
        }
      ],
      "name": "deleteList",
      "outputs": [],
      "stateMutability": "nonpayable",
      "type": "function"
    }
  ],
  "bytecode": "0x608060405234801561001057600080fd5b506110b9806100206000396000f3fe608060405234801561001057600080fd5b50600436106100575760003560e01c8063797adbde1461005c57806381a9db801461007857806396102cf4146100a85780639c827755146100da578063a9fa7d7b146100f8575b600080fd5b61007660048036038101906100719190610781565b610114565b005b610092600480360381019061008d919061080c565b61034c565b60405161009f919061085b565b60405180910390f35b6100c260048036038101906100bd9190610781565b61037d565b6040516100d193929190610915565b60405180910390f35b6100e261044f565b6040516100ef9190610a11565b60405180910390f35b610112600480360381019061010d9190610b68565b6104e3565b005b3373ffffffffffffffffffffffffffffffffffffffff166001600083815260200190815260200160002060020160009054906101000a900473ffffffffffffffffffffffffffffffffffffffff1673ffffffffffffffffffffffffffffffffffffffff16146101b8576040517f08c379a00000000000000000000000000000000000000000000000000000000081526004016101af90610c10565b60405180910390fd5b600160008281526020019081526020016000206000808201600090556001820160006101e491906106da565b6002820160006101000a81549073ffffffffffffffffffffffffffffffffffffffff0219169055505060008060003373ffffffffffffffffffffffffffffffffffffffff1673ffffffffffffffffffffffffffffffffffffffff168152602001908152602001600020905060005b8180549050811015610310578282828154811061027257610271610c30565b5b9060005260206000200154036102fd5781600183805490506102949190610c8e565b815481106102a5576102a4610c30565b5b90600052602060002001548282815481106102c3576102c2610c30565b5b9060005260206000200181905550818054806102e2576102e1610cc2565b5b60019003818190600052602060002001600090559055610310565b808061030890610cf1565b915050610252565b507fd33063b0d78632c1d909d410191f7a39f978088d25a883233e721e12cd66750c82604051610340919061085b565b60405180910390a15050565b6000602052816000526040600020818154811061036857600080fd5b90600052602060002001600091509150505481565b60016020528060005260406000206000915090508060000154908060010180546103a690610d68565b80601f01602080910402602001604051908101604052809291908181526020018280546103d290610d68565b801561041f5780601f106103f45761010080835404028352916020019161041f565b820191906000526020600020905b81548152906001019060200180831161040257829003601f168201915b5050505050908060020160009054906101000a900473ffffffffffffffffffffffffffffffffffffffff16905083565b60606000803373ffffffffffffffffffffffffffffffffffffffff1673ffffffffffffffffffffffffffffffffffffffff1681526020019081526020016000208054806020026020016040519081016040528092919081815260200182805480156104d957602002820191906000526020600020905b8154815260200190600101908083116104c5575b5050505050905090565b600073ffffffffffffffffffffffffffffffffffffffff166001600084815260200190815260200160002060020160009054906101000a900473ffffffffffffffffffffffffffffffffffffffff1673ffffffffffffffffffffffffffffffffffffffff1614610588576040517f08c379a000000000000000000000000000000000000000000000000000000000815260040161057f90610de5565b60405180910390fd5b60405180606001604052808381526020018281526020013373ffffffffffffffffffffffffffffffffffffffff16815250600160008481526020019081526020016000206000820151816000015560208201518160010190816105eb9190610fb1565b5060408201518160020160006101000a81548173ffffffffffffffffffffffffffffffffffffffff021916908373ffffffffffffffffffffffffffffffffffffffff1602179055509050506000803373ffffffffffffffffffffffffffffffffffffffff1673ffffffffffffffffffffffffffffffffffffffff1681526020019081526020016000208290806001815401808255809150506001900390600052602060002001600090919091909150557fe02edf3d865140616473f19bc917dac0a43099fc958ecc9264942a59db8835e68282336040516106ce93929190610915565b60405180910390a15050565b5080546106e690610d68565b6000825580601f106106f85750610717565b601f016020900490600052602060002090810190610716919061071a565b5b50565b5b8082111561073357600081600090555060010161071b565b5090565b6000604051905090565b600080fd5b600080fd5b6000819050919050565b61075e8161074b565b811461076957600080fd5b50565b60008135905061077b81610755565b92915050565b60006020828403121561079757610796610741565b5b60006107a58482850161076c565b91505092915050565b600073ffffffffffffffffffffffffffffffffffffffff82169050919050565b60006107d9826107ae565b9050919050565b6107e9816107ce565b81146107f457600080fd5b50565b600081359050610806816107e0565b92915050565b6000806040838503121561082357610822610741565b5b6000610831858286016107f7565b92505060206108428582860161076c565b9150509250929050565b6108558161074b565b82525050565b6000602082019050610870600083018461084c565b92915050565b600081519050919050565b600082825260208201905092915050565b60005b838110156108b0578082015181840152602081019050610895565b60008484015250505050565b6000601f19601f8301169050919050565b60006108d882610876565b6108e28185610881565b93506108f2818560208601610892565b6108fb816108bc565b840191505092915050565b61090f816107ce565b82525050565b600060608201905061092a600083018661084c565b818103602083015261093c81856108cd565b905061094b6040830184610906565b949350505050565b600081519050919050565b600082825260208201905092915050565b6000819050602082019050919050565b6109888161074b565b82525050565b600061099a838361097f565b60208301905092915050565b6000602082019050919050565b60006109be82610953565b6109c8818561095e565b93506109d38361096f565b8060005b83811015610a045781516109eb888261098e565b97506109f6836109a6565b9250506001810190506109d7565b5085935050505092915050565b60006020820190508181036000830152610a2b81846109b3565b905092915050565b600080fd5b600080fd5b7f4e487b7100000000000000000000000000000000000000000000000000000000600052604160045260246000fd5b610a75826108bc565b810181811067ffffffffffffffff82111715610a9457610a93610a3d565b5b80604052505050565b6000610aa7610737565b9050610ab38282610a6c565b919050565b600067ffffffffffffffff821115610ad357610ad2610a3d565b5b610adc826108bc565b9050602081019050919050565b82818337600083830152505050565b6000610b0b610b0684610ab8565b610a9d565b905082815260208101848484011115610b2757610b26610a38565b5b610b32848285610ae9565b509392505050565b600082601f830112610b4f57610b4e610a33565b5b8135610b5f848260208601610af8565b91505092915050565b60008060408385031215610b7f57610b7e610741565b5b6000610b8d8582860161076c565b925050602083013567ffffffffffffffff811115610bae57610bad610746565b5b610bba85828601610b3a565b9150509250929050565b7f4f6e6c79207468652063726561746f722063616e2064657374726f792e000000600082015250565b6000610bfa601d83610881565b9150610c0582610bc4565b602082019050919050565b60006020820190508181036000830152610c2981610bed565b9050919050565b7f4e487b7100000000000000000000000000000000000000000000000000000000600052603260045260246000fd5b7f4e487b7100000000000000000000000000000000000000000000000000000000600052601160045260246000fd5b6000610c998261074b565b9150610ca48361074b565b9250828203905081811115610cbc57610cbb610c5f565b5b92915050565b7f4e487b7100000000000000000000000000000000000000000000000000000000600052603160045260246000fd5b6000610cfc8261074b565b91507fffffffffffffffffffffffffffffffffffffffffffffffffffffffffffffffff8203610d2e57610d2d610c5f565b5b600182019050919050565b7f4e487b7100000000000000000000000000000000000000000000000000000000600052602260045260246000fd5b60006002820490506001821680610d8057607f821691505b602082108103610d9357610d92610d39565b5b50919050565b7f4c69737420494420616c7265616479206578697374732e000000000000000000600082015250565b6000610dcf601783610881565b9150610dda82610d99565b602082019050919050565b60006020820190508181036000830152610dfe81610dc2565b9050919050565b60008190508160005260206000209050919050565b60006020601f8301049050919050565b600082821b905092915050565b600060088302610e677fffffffffffffffffffffffffffffffffffffffffffffffffffffffffffffffff82610e2a565b610e718683610e2a565b95508019841693508086168417925050509392505050565b6000819050919050565b6000610eae610ea9610ea48461074b565b610e89565b61074b565b9050919050565b6000819050919050565b610ec883610e93565b610edc610ed482610eb5565b848454610e37565b825550505050565b600090565b610ef1610ee4565b610efc818484610ebf565b505050565b5b81811015610f2057610f15600082610ee9565b600181019050610f02565b5050565b601f821115610f6557610f3681610e05565b610f3f84610e1a565b81016020851015610f4e578190505b610f62610f5a85610e1a565b830182610f01565b50505b505050565b600082821c905092915050565b6000610f8860001984600802610f6a565b1980831691505092915050565b6000610fa18383610f77565b9150826002028217905092915050565b610fba82610876565b67ffffffffffffffff811115610fd357610fd2610a3d565b5b610fdd8254610d68565b610fe8828285610f24565b600060209050601f83116001811461101b5760008415611009578287015190505b6110138582610f95565b86555061107b565b601f19841661102986610e05565b60005b828110156110515784890151825560018201915060208501945060208101905061102c565b8683101561106e578489015161106a601f891682610f77565b8355505b6001600288020188555050505b50505050505056fea264697066735822122079e774e3dd432044170f6e4889ee8a1376ab91da960c7b81892bd4d96c06980e64736f6c63430008110033",
  "immutableReferences": {},
  "source": "// SPDX-License-Identifier: MIT\npragma solidity >=0.4.22 <0.9.0;\n\ncontract UserListManagement {\n\n  struct List {\n    uint id;\n    string ipnsName;\n    address creator;\n  }\n\n  // user address to list IDs\n  mapping(address => uint[]) public userLists;\n  // list ID to list data\n  mapping(uint => List) public lists;\n\n  event ListCreated(uint id, string ipnsName, address creator);\n  event ListDeleted(uint id);\n\n\n  function createList(uint _id, string memory _ipnsName) public {\n    require(lists[_id].creator == address(0), \"List ID already exists.\");\n\n    lists[_id] = List(_id, _ipnsName, msg.sender);\n    userLists[msg.sender].push(_id);\n    emit ListCreated(_id, _ipnsName, msg.sender);\n  }\n\n  function fetchUserLists() public view returns (uint[] memory) {\n    return userLists[msg.sender];\n  }\n\n  function deleteList(uint _id) public {\n    require(lists[_id].creator == msg.sender, \"Only the creator can destroy.\");\n    delete lists[_id];\n\n    uint[] storage userList = userLists[msg.sender];\n    for (uint i = 0; i < userList.length; i++) {\n      if (userList[i] == _id) {\n        userList[i] = userList[userList.length -1];\n        userList.pop();\n        break;\n      }\n    }\n    emit ListDeleted(_id);\n  }\n  \n}\n",
  "sourcePath": "C:\\Users\\Dave\\ba-project\\to-do-list\\contracts\\UserListManagement.sol",
  "compiler": {
    "name": "solc",
    "version": "0.8.17+commit.8df45f5f.Emscripten.clang"
  },
  "schemaVersion": "3.4.16",
  "updatedAt": "2025-01-17T16:32:59.284Z",
  "networkType": "ethereum",
  "devdoc": {
    "kind": "dev",
    "methods": {},
    "version": 1
  },
  "userdoc": {
    "kind": "user",
    "methods": {},
    "version": 1
  }
}