{
  "contractName": "UserListManagement",
  "abi": [
    {
      "anonymous": false,
      "inputs": [
        {
          "indexed": false,
          "internalType": "uint256",
          "name": "id",
          "type": "uint256"
        },
        {
          "indexed": false,
          "internalType": "string",
          "name": "ipnsName",
          "type": "string"
        },
        {
          "indexed": false,
          "internalType": "address",
          "name": "creator",
          "type": "address"
        }
      ],
      "name": "ListCreated",
      "type": "event"
    },
    {
      "anonymous": false,
      "inputs": [
        {
          "indexed": false,
          "internalType": "uint256",
          "name": "id",
          "type": "uint256"
        }
      ],
      "name": "ListDeleted",
      "type": "event"
    },
    {
      "anonymous": false,
      "inputs": [
        {
          "indexed": false,
          "internalType": "string",
          "name": "RSAPubKey",
          "type": "string"
        }
      ],
      "name": "RSAPubKeyStored",
      "type": "event"
    },
    {
      "inputs": [
        {
          "internalType": "uint256",
          "name": "",
          "type": "uint256"
        }
      ],
      "name": "lists",
      "outputs": [
        {
          "internalType": "uint256",
          "name": "id",
          "type": "uint256"
        },
        {
          "internalType": "string",
          "name": "ipnsName",
          "type": "string"
        },
        {
          "internalType": "address",
          "name": "creator",
          "type": "address"
        }
      ],
      "stateMutability": "view",
      "type": "function",
      "constant": true
    },
    {
      "inputs": [
        {
          "internalType": "address",
          "name": "",
          "type": "address"
        },
        {
          "internalType": "uint256",
          "name": "",
          "type": "uint256"
        }
      ],
      "name": "userLists",
      "outputs": [
        {
          "internalType": "uint256",
          "name": "",
          "type": "uint256"
        }
      ],
      "stateMutability": "view",
      "type": "function",
      "constant": true
    },
    {
      "inputs": [
        {
          "internalType": "address",
          "name": "",
          "type": "address"
        }
      ],
      "name": "userRSAPubKeys",
      "outputs": [
        {
          "internalType": "string",
          "name": "",
          "type": "string"
        }
      ],
      "stateMutability": "view",
      "type": "function",
      "constant": true
    },
    {
      "inputs": [
        {
          "internalType": "uint256",
          "name": "_id",
          "type": "uint256"
        },
        {
          "internalType": "string",
          "name": "_ipnsName",
          "type": "string"
        }
      ],
      "name": "createList",
      "outputs": [],
      "stateMutability": "nonpayable",
      "type": "function"
    },
    {
      "inputs": [],
      "name": "fetchUserLists",
      "outputs": [
        {
          "internalType": "uint256[]",
          "name": "",
          "type": "uint256[]"
        }
      ],
      "stateMutability": "view",
      "type": "function",
      "constant": true
    },
    {
      "inputs": [
        {
          "internalType": "uint256",
          "name": "_id",
          "type": "uint256"
        }
      ],
      "name": "deleteList",
      "outputs": [],
      "stateMutability": "nonpayable",
      "type": "function"
    },
    {
      "inputs": [
        {
          "internalType": "string",
          "name": "_rSAPubKey",
          "type": "string"
        }
      ],
      "name": "storeRSAPubKey",
      "outputs": [],
      "stateMutability": "nonpayable",
      "type": "function"
    }
  ],
  "bytecode": "0x608060405234801561001057600080fd5b506113a0806100206000396000f3fe608060405234801561001057600080fd5b506004361061007d5760003560e01c806381a9db801161005b57806381a9db80146100ea57806396102cf41461011a5780639c8277551461014c578063a9fa7d7b1461016a5761007d565b80632751ee1814610082578063604c9e44146100b2578063797adbde146100ce575b600080fd5b61009c6004803603810190610097919061098c565b610186565b6040516100a99190610a49565b60405180910390f35b6100cc60048036038101906100c79190610ba0565b610226565b005b6100e860048036038101906100e39190610c1f565b6102f1565b005b61010460048036038101906100ff9190610c4c565b61052f565b6040516101119190610c9b565b60405180910390f35b610134600480360381019061012f9190610c1f565b610560565b60405161014393929190610cc5565b60405180910390f35b610154610632565b6040516101619190610dc1565b60405180910390f35b610184600480360381019061017f9190610de3565b6106c6565b005b600260205280600052604060002060009150905080546101a590610e6e565b80601f01602080910402602001604051908101604052809291908181526020018280546101d190610e6e565b801561021e5780601f106101f35761010080835404028352916020019161021e565b820191906000526020600020905b81548152906001019060200180831161020157829003601f168201915b505050505081565b600081511161026a576040517f08c379a000000000000000000000000000000000000000000000000000000000815260040161026190610eeb565b60405180910390fd5b80600260003373ffffffffffffffffffffffffffffffffffffffff1673ffffffffffffffffffffffffffffffffffffffff16815260200190815260200160002090816102b691906110b7565b507f6a980bad4e0727f9f480479eb1013fcd608ba0b7c7df9a26c459f0d0bcc5dd27816040516102e69190610a49565b60405180910390a150565b3373ffffffffffffffffffffffffffffffffffffffff166001600083815260200190815260200160002060020160009054906101000a900473ffffffffffffffffffffffffffffffffffffffff1673ffffffffffffffffffffffffffffffffffffffff1614610395576040517f08c379a000000000000000000000000000000000000000000000000000000000815260040161038c906111d5565b60405180910390fd5b600160008281526020019081526020016000206000808201600090556001820160006103c191906108bd565b6002820160006101000a81549073ffffffffffffffffffffffffffffffffffffffff0219169055505060008060003373ffffffffffffffffffffffffffffffffffffffff1673ffffffffffffffffffffffffffffffffffffffff168152602001908152602001600020905060008180549050905060005b818110156104f25783838281548110610454576104536111f5565b5b9060005260206000200154036104df5782600184805490506104769190611253565b81548110610487576104866111f5565b5b90600052602060002001548382815481106104a5576104a46111f5565b5b9060005260206000200181905550828054806104c4576104c3611287565b5b600190038181906000526020600020016000905590556104f2565b80806104ea906112b6565b915050610438565b507fd33063b0d78632c1d909d410191f7a39f978088d25a883233e721e12cd66750c836040516105229190610c9b565b60405180910390a1505050565b6000602052816000526040600020818154811061054b57600080fd5b90600052602060002001600091509150505481565b600160205280600052604060002060009150905080600001549080600101805461058990610e6e565b80601f01602080910402602001604051908101604052809291908181526020018280546105b590610e6e565b80156106025780601f106105d757610100808354040283529160200191610602565b820191906000526020600020905b8154815290600101906020018083116105e557829003601f168201915b5050505050908060020160009054906101000a900473ffffffffffffffffffffffffffffffffffffffff16905083565b60606000803373ffffffffffffffffffffffffffffffffffffffff1673ffffffffffffffffffffffffffffffffffffffff1681526020019081526020016000208054806020026020016040519081016040528092919081815260200182805480156106bc57602002820191906000526020600020905b8154815260200190600101908083116106a8575b5050505050905090565b600073ffffffffffffffffffffffffffffffffffffffff166001600084815260200190815260200160002060020160009054906101000a900473ffffffffffffffffffffffffffffffffffffffff1673ffffffffffffffffffffffffffffffffffffffff161461076b576040517f08c379a00000000000000000000000000000000000000000000000000000000081526004016107629061134a565b60405180910390fd5b60405180606001604052808381526020018281526020013373ffffffffffffffffffffffffffffffffffffffff16815250600160008481526020019081526020016000206000820151816000015560208201518160010190816107ce91906110b7565b5060408201518160020160006101000a81548173ffffffffffffffffffffffffffffffffffffffff021916908373ffffffffffffffffffffffffffffffffffffffff1602179055509050506000803373ffffffffffffffffffffffffffffffffffffffff1673ffffffffffffffffffffffffffffffffffffffff1681526020019081526020016000208290806001815401808255809150506001900390600052602060002001600090919091909150557fe02edf3d865140616473f19bc917dac0a43099fc958ecc9264942a59db8835e68282336040516108b193929190610cc5565b60405180910390a15050565b5080546108c990610e6e565b6000825580601f106108db57506108fa565b601f0160209004906000526020600020908101906108f991906108fd565b5b50565b5b808211156109165760008160009055506001016108fe565b5090565b6000604051905090565b600080fd5b600080fd5b600073ffffffffffffffffffffffffffffffffffffffff82169050919050565b60006109598261092e565b9050919050565b6109698161094e565b811461097457600080fd5b50565b60008135905061098681610960565b92915050565b6000602082840312156109a2576109a1610924565b5b60006109b084828501610977565b91505092915050565b600081519050919050565b600082825260208201905092915050565b60005b838110156109f35780820151818401526020810190506109d8565b60008484015250505050565b6000601f19601f8301169050919050565b6000610a1b826109b9565b610a2581856109c4565b9350610a358185602086016109d5565b610a3e816109ff565b840191505092915050565b60006020820190508181036000830152610a638184610a10565b905092915050565b600080fd5b600080fd5b7f4e487b7100000000000000000000000000000000000000000000000000000000600052604160045260246000fd5b610aad826109ff565b810181811067ffffffffffffffff82111715610acc57610acb610a75565b5b80604052505050565b6000610adf61091a565b9050610aeb8282610aa4565b919050565b600067ffffffffffffffff821115610b0b57610b0a610a75565b5b610b14826109ff565b9050602081019050919050565b82818337600083830152505050565b6000610b43610b3e84610af0565b610ad5565b905082815260208101848484011115610b5f57610b5e610a70565b5b610b6a848285610b21565b509392505050565b600082601f830112610b8757610b86610a6b565b5b8135610b97848260208601610b30565b91505092915050565b600060208284031215610bb657610bb5610924565b5b600082013567ffffffffffffffff811115610bd457610bd3610929565b5b610be084828501610b72565b91505092915050565b6000819050919050565b610bfc81610be9565b8114610c0757600080fd5b50565b600081359050610c1981610bf3565b92915050565b600060208284031215610c3557610c34610924565b5b6000610c4384828501610c0a565b91505092915050565b60008060408385031215610c6357610c62610924565b5b6000610c7185828601610977565b9250506020610c8285828601610c0a565b9150509250929050565b610c9581610be9565b82525050565b6000602082019050610cb06000830184610c8c565b92915050565b610cbf8161094e565b82525050565b6000606082019050610cda6000830186610c8c565b8181036020830152610cec8185610a10565b9050610cfb6040830184610cb6565b949350505050565b600081519050919050565b600082825260208201905092915050565b6000819050602082019050919050565b610d3881610be9565b82525050565b6000610d4a8383610d2f565b60208301905092915050565b6000602082019050919050565b6000610d6e82610d03565b610d788185610d0e565b9350610d8383610d1f565b8060005b83811015610db4578151610d9b8882610d3e565b9750610da683610d56565b925050600181019050610d87565b5085935050505092915050565b60006020820190508181036000830152610ddb8184610d63565b905092915050565b60008060408385031215610dfa57610df9610924565b5b6000610e0885828601610c0a565b925050602083013567ffffffffffffffff811115610e2957610e28610929565b5b610e3585828601610b72565b9150509250929050565b7f4e487b7100000000000000000000000000000000000000000000000000000000600052602260045260246000fd5b60006002820490506001821680610e8657607f821691505b602082108103610e9957610e98610e3f565b5b50919050565b7f5075626c6963206b65792063616e6e6f7420626520656d707479000000000000600082015250565b6000610ed5601a836109c4565b9150610ee082610e9f565b602082019050919050565b60006020820190508181036000830152610f0481610ec8565b9050919050565b60008190508160005260206000209050919050565b60006020601f8301049050919050565b600082821b905092915050565b600060088302610f6d7fffffffffffffffffffffffffffffffffffffffffffffffffffffffffffffffff82610f30565b610f778683610f30565b95508019841693508086168417925050509392505050565b6000819050919050565b6000610fb4610faf610faa84610be9565b610f8f565b610be9565b9050919050565b6000819050919050565b610fce83610f99565b610fe2610fda82610fbb565b848454610f3d565b825550505050565b600090565b610ff7610fea565b611002818484610fc5565b505050565b5b818110156110265761101b600082610fef565b600181019050611008565b5050565b601f82111561106b5761103c81610f0b565b61104584610f20565b81016020851015611054578190505b61106861106085610f20565b830182611007565b50505b505050565b600082821c905092915050565b600061108e60001984600802611070565b1980831691505092915050565b60006110a7838361107d565b9150826002028217905092915050565b6110c0826109b9565b67ffffffffffffffff8111156110d9576110d8610a75565b5b6110e38254610e6e565b6110ee82828561102a565b600060209050601f831160018114611121576000841561110f578287015190505b611119858261109b565b865550611181565b601f19841661112f86610f0b565b60005b8281101561115757848901518255600182019150602085019450602081019050611132565b868310156111745784890151611170601f89168261107d565b8355505b6001600288020188555050505b505050505050565b7f4f6e6c79207468652063726561746f722063616e2064657374726f792e000000600082015250565b60006111bf601d836109c4565b91506111ca82611189565b602082019050919050565b600060208201905081810360008301526111ee816111b2565b9050919050565b7f4e487b7100000000000000000000000000000000000000000000000000000000600052603260045260246000fd5b7f4e487b7100000000000000000000000000000000000000000000000000000000600052601160045260246000fd5b600061125e82610be9565b915061126983610be9565b925082820390508181111561128157611280611224565b5b92915050565b7f4e487b7100000000000000000000000000000000000000000000000000000000600052603160045260246000fd5b60006112c182610be9565b91507fffffffffffffffffffffffffffffffffffffffffffffffffffffffffffffffff82036112f3576112f2611224565b5b600182019050919050565b7f4c69737420494420616c7265616479206578697374732e000000000000000000600082015250565b60006113346017836109c4565b915061133f826112fe565b602082019050919050565b6000602082019050818103600083015261136381611327565b905091905056fea2646970667358221220ec545828a44249d19e674cd6df82fd2563dd7d0d4c98c9af1240e782f03238b264736f6c63430008110033",
  "immutableReferences": {},
  "source": "// SPDX-License-Identifier: MIT\npragma solidity >=0.4.22 <0.9.0;\n\ncontract UserListManagement {\n\n  struct List {\n    uint id;\n    string ipnsName;\n    address creator;\n  }\n\n\n// how to secure data in mappings? \n  // user address to list IDs\n  mapping(address => uint[]) public userLists;\n  // list ID to list data\n  mapping(uint => List) public lists;\n  // username and RSA pubkey feature \n  mapping(address => string) public userRSAPubKeys;\n\n  event ListCreated(uint id, string ipnsName, address creator);\n  event ListDeleted(uint id);\n  event RSAPubKeyStored(string RSAPubKey);\n\n\n  function createList(uint _id, string memory _ipnsName) public {\n    // Check in mapping: Creator of said list must be 0 i.e. list does not exist yet. \n    require(lists[_id].creator == address(0), \"List ID already exists.\");\n\n    lists[_id] = List(_id, _ipnsName, msg.sender);\n    userLists[msg.sender].push(_id);\n    emit ListCreated(_id, _ipnsName, msg.sender);\n  }\n\n  function fetchUserLists() public view returns (uint[] memory) {\n    return userLists[msg.sender];\n  }\n\n  function deleteList(uint _id) public {\n    require(lists[_id].creator == msg.sender, \"Only the creator can destroy.\");\n    delete lists[_id];\n\n    uint[] storage userList = userLists[msg.sender];\n    uint length = userList.length;\n    for (uint i = 0; i < length; i++) {\n      if (userList[i] == _id) {\n        userList[i] = userList[userList.length -1];\n        userList.pop();\n        break;\n      }\n    }\n    emit ListDeleted(_id);\n  }\n\n\n\n  function storeRSAPubKey(string memory _rSAPubKey) public {\n        require(bytes(_rSAPubKey).length > 0, \"Public key cannot be empty\");\n        userRSAPubKeys[msg.sender] = _rSAPubKey;  // Store key\n        emit RSAPubKeyStored(_rSAPubKey);\n  }\n  \n}\n",
  "sourcePath": "C:\\Users\\Dave\\ba-project\\to-do-list\\contracts\\UserListManagement.sol",
  "compiler": {
    "name": "solc",
    "version": "0.8.17+commit.8df45f5f.Emscripten.clang"
  },
  "schemaVersion": "3.4.16",
  "updatedAt": "2025-02-21T20:02:29.299Z",
  "networkType": "ethereum",
  "devdoc": {
    "kind": "dev",
    "methods": {},
    "version": 1
  },
  "userdoc": {
    "kind": "user",
    "methods": {},
    "version": 1
  }
}